:100000000C9434000C9446000C9446000C9446006A
:100010000C9446000C9446000C9446000C94460048
:100020000C9446000C9446000C9446000C94460038
:100030000C9446000C9446000C9446000C94460028
:100040000C941D010C9446000C94C2000C944600C4
:100050000C9446000C9446000C9446000C94460008
:100060000C9446000C94460011241FBECFEFD8E03C
:10007000DEBFCDBF21E0A0E0B1E001C01D92A635FA
:10008000B207E1F70E9454010C94B2010C940000F5
:100090005B9A85E08A95F1F700005B988FE99FE015
:1000A0000197F1F700C000000895CF93C82F5A9A26
:1000B0008BB19C2F907F8F70892B8BB90E94480049
:1000C0002BB130E1C39FC0011124922F9F70892B67
:1000D0008BB90E944800CF910895CF93C82F5A98AA
:1000E0008BB19C2F907F8F70892B8BB90E94480019
:1000F0002BB130E1C39FC0011124922F9F70892B37
:100100008BB90E944800CF91089581E00E946D0054
:100110008FE99FE00197F1F700C0000008958FE399
:100120009CE90197F1F700C000008AB18C6F8AB991
:1001300082E00E946D0088E20E946D008CE00E94C7
:100140006D000E94850086E00E946D000895E0EC3D
:10015000F0E08081826080831092C5008FEC8093F4
:10016000C400E2ECF0E0808186608083E1ECF0E0A6
:1001700080818061808380818860808380818068C5
:10018000808308951F920F920FB60F9211248F93C0
:10019000AF93BF93CF93DF93EF93FF938091C00012
:1001A000882394F4C6ECD0E0A0ECB0E0E091050127
:1001B00081E08E0F809305018881F0E0EA5FFE4FB9
:1001C00080838C91882394F3E0910501F0E0EA5F4D
:1001D000FE4F108281E080930401FF91EF91DF9147
:1001E000CF91BF91AF918F910F900FBE0F901F9045
:1001F0001895CF93DF93809105018823B9F09091F2
:100200000601992389F020E0E0ECF0E0C6ECD0E0B4
:10021000808185FFFDCF98832F5FA22FB0E0AA5F7A
:10022000BE4F9C919111F4CF10920501DF91CF91B7
:10023000089584B18C6184B908951F920F920FB60E
:100240000F9211242F933F938F939F9380910201DC
:100250009091030101968032910529F0909303015A
:100260008093020118C01092030110920201809144
:1002700000019091010121E030E0009711F020E0B1
:1002800030E03093010120930001892B19F480E2C2
:1002900085B901C015B89F918F913F912F910F9013
:1002A0000FBE0F901F9018950E94A7000E948F000C
:1002B000789480E284B915B80E94190185B58560EB
:1002C00085BDEEE6F0E080818160808306E011E08C
:1002D0000E94F900809104018823D1F31092040157
:1002E0000E94850080E80E946D00F80180818111E4
:1002F0002BC025C0F70181917F01882331F00E9436
:100300005500CF5FC031B1F729C080EC0E946D006D
:10031000C032F0F6EC2FF0E0EA5FFE4F80818111F1
:1003200008C0D6CFEC2FF0E0EA5FFE4F8081882333
:1003300079F20E945500CF5FC032A0F3C9CF80ECA4
:100340000E946D00C0E0E6CF0E9455000F2EF7E03E
:10035000EF2EF1E0FF2EF02DC1E0CCCF80EC0E941B
:080360006D00D8CFF894FFCF27
:00000001FF
