S00B00004C45442E7372656344
S11300000C9434000C943E000C943E000C943E007E
S11300100C943E000C943E000C943E000C943E0064
S11300200C943E000C943E000C943E000C943E0054
S11300300C943E000C943E000C943E000C943E0044
S11300400C943E000C943E000C943E000C943E0034
S11300500C943E000C943E000C943E000C943E0024
S11300600C943E000C943E0011241FBECFEFD8E048
S1130070DEBFCDBF0E9447000C9488000C940000A2
S113008080E284B915B81AB884E08BB908950E9447
S113009068000E944000C0E24A9BFECF15B82FEFD3
S11300A081EE94E0215080409040E1F700C00000D0
S11300B04A99FECF8AE20E948000C5B92FEF81EEF3
S11300C094E0215080409040E1F700C00000E4CF6C
S11300D0E0ECF0E08081826080831092C5008FECB8
S11300E08093C400E2ECF0E0808186608083E1ECE0
S11300F0F0E08081806180838081886080830895BE
S1130100E0ECF0E0908195FFFDCF8093C600089568
S1070110F894FFCF8D
S9030000FC
