S00C0000554152542E73726563DC
S11300000C943A000C9457000C9457000C9457002D
S11300100C9457000C9457000C9457000C94570000
S11300200C9457000C9457000C9457000C945700F0
S11300300C9457000C9457000C9457000C945700E0
S11300400C9457000C9457000C9457000C945700D0
S11300500C9457000C9457000C9457000C945700C0
S11300600C9457000C9457006364696E6F70737539
S113007078585B0011241FBECFEFD8E0DEBFCDBFA0
S113008011E0A0E0B1E0E2E8FDE002C005900D92CD
S1130090A832B107D9F721E0A8E2B1E001C01D926E
S11300A0AE32B207E1F70E9459000C94BF060C94DB
S11300B00000CF93DF931F92CDB7DEB7E8E2F1E003
S11300C08EE091E09383828380E091E0918380834A
S11300D00E948800CE0101966C010F2EF5E2EF2EEE
S11300E0F1E0FF2EF02D0CE111E0DF92CF92FF92B0
S11300F0EF920E94C60089811F928F931F930F93E2
S11301000E94B0000FB6F894DEBF0FBECDBFEDCF96
S1130110E0ECF0E08081826080831092C5008FEC77
S11301208093C400E2ECF0E0808186608083E1EC9F
S1130130F0E080818061808380818860808308957D
S1130140E0ECF0E080818823ECF78091C60008950C
S1130150E0ECF0E0908195FFFDCF8093C600089518
S1130160A0E0B0E0E6EBF0E00C949806AE014B5F43
S11301705F4FFA0161917191AF0180912A019091D1
S11301802B010E94DC00E2E00C94B406A0E0B0E095
S1130190ECECF0E00C949806AE014B5F5F4FFA0173
S11301A061917191AF0180912801909129010E9480
S11301B05904E2E00C94B406ABE0B0E0E2EEF0E007
S11301C00C9488066C017B018A01FC01178216825B
S11301D0838181FFCCC1CE0101963C01F60193815C
S11301E0F70193FD859193FF81917F01882309F4A1
S11301F0BAC1853239F493FD859193FF81917F01D2
S1130200853229F4B60190E00E94D205E7CF912C03
S1130210212C312CFFE1F315D8F08B3279F038F42E
S1130220803279F08332A1F4232D20611DC08D32F8
S113023061F0803369F4232D216016C0832D826020
S1130240382EE32DE4603E2E2AC0F32DF8601DC045
S113025037FC2DC020ED280F2A3040F08E32B9F43F
S113026036FC81C1232D2064322E19C036FE06C00F
S11302708AE0989E200D1124922E11C0EAE02E9E51
S1130280200D1124222EF32DF0623F2E08C08C364F
S113029021F4832D8068382E02C0883641F4F7019A
S11302A093FD859193FF81917F018111B3CF982FA5
S11302B09F7D9554933028F40C5F1F4F9FE39983DF
S11302C00DC0833631F0833771F0833509F059C09E
S11302D021C0F801808189830E5F1F4F8824839495
S11302E0912C530113C02801F2E04F0E511CF80168
S11302F0A080B18036FE03C0692D70E002C06FEFAC
S11303007FEFC5010E9489054C018201F32DFF771F
S11303103F2E16C0280122E0420E511CF801A08095
S1130320B18036FE03C0692D70E002C06FEF7FEF2D
S1130330C5010E947E054C01F32DF0683F2E820119
S113034033FC1BC0822D90E088169906B0F4B601E8
S113035080E290E00E94D2052A94F4CFF50137FCA4
S1130360859137FE81915F01B60190E00E94D2052C
S113037021102A9421E0821A91088114910471F7C2
S1130380E8C0843611F0893641F5F80137FE07C01C
S113039060817181828193810C5F1F4F08C06081ED
S11303A07181072E000C880B990B0E5F1F4FF32DE4
S11303B0FF763F2E97FF09C09095809570956195C3
S11303C07F4F8F4F9F4FF0683F2E2AE030E0A3010C
S11303D00E942706882E861845C0853731F4232DC0
S11303E02F7EB22E2AE030E025C0932D997FB92EBE
S11303F08F36C1F018F4883579F0B5C0803719F01C
S1130400883721F0B0C0E92FE061BE2EB4FE0DC0E4
S1130410FB2DF460BF2E09C034FE0AC0292F2660CC
S1130420B22E06C028E030E005C020E130E002C072
S113043020E132E0F801B7FE07C06081718182815A
S113044093810C5F1F4F06C06081718180E090E052
S11304500E5F1F4FA3010E942706882E8618FB2DCE
S1130460FF773F2E36FE0DC0232D2E7FA22E89143A
S113047058F434FE0BC032FC09C0832D8E7EA82EA6
S113048005C0B82CA32C03C0B82C01C0B92CA4FE01
S11304900FC0FE01E80DF11D8081803321F49A2DF7
S11304A0997EA92E09C0A2FE06C0B394B39404C0D9
S11304B08A2D867809F0B394A3FC11C0A0FE06C06F
S11304C0B21488F4280C922C9B180EC0B21460F459
S11304D0B60180E290E00E94D205B394F7CFB21443
S11304E018F42B1802C0982C212CA4FE10C0B601BD
S11304F080E390E00E94D205A2FE17C0A1FC03C0D5
S113050088E790E002C088E590E0B6010CC08A2D2F
S1130510867859F0A1FE02C08BE201C080E2A7FCFC
S11305208DE2B60190E00E94D205891438F4B60138
S113053080E390E00E94D2059A94F7CF8A94F30165
S1130540E80DF11D8081B60190E00E94D205811072
S1130550F5CF222009F442CEB60180E290E00E9459
S1130560D2052A94F6CFF6018681978102C08FEFD7
S11305709FEF2B96E2E10C94A40620FD09C0FC0138
S113058023FD05C022FF02C073836283518340832D
S1130590089544FD17C046FD17C0AB01BC01DA0144
S11305A0FB01AA0FBB1FEE1FFF1F1094D1F74A0FC8
S11305B05B1F6E1F7F1FCB01BA01660F771F881F59
S11305C0991F09C033E001C034E0660F771F881F0C
S11305D0991F3150D1F7620F711D811D911D08952E
S11305E00F931F93CF93DF938C01C8010E9494054E
S11305F0EC0197FD08C00E946A05892BB1F7B80188
S1130600CE010E940E06CE01DF91CF911F910F9172
S113061008958F929F92AF92BF92EF92FF920F93A1
S11306201F93CF93DF938C01D62F7A01B22E0E94B1
S113063094059C0133272B32310531F02D323105DD
S113064061F48B2D8068B82ED15011F480E068C01D
S1130650C8010E94940597FDF9CFCB2DCD7F2B2D9A
S1130660207309F58033F9F4AA24AA94AD0E09F491
S113067043C0C8010E94940597FD3EC09C012F7D94
S113068033272835310549F4C264D250A9F1C80191
S11306900E94940597FF07C02FC0B6FE02C0C26037
S11306A001C0C261DA2D812C912C540120ED280F58
S11306B0283080F0C4FF04C0B8010E940E0619C09F
S11306C02A3040F0C6FFF8CF2F7D3FEE320F363090
S11306D098F727504C2FC501B4010E94C9024B0161
S11306E05C01C260D15059F0C8010E94940597FF83
S11306F0DDCFC1FD04C0AACF812C912C5401C7FFCA
S113070008C0B094A09490948094811C911CA11C66
S1130710B11C2C2FB501A401C7010E94BD0281E0C8
S1130720DF91CF911F910F91FF90EF90BF90AF9009
S11307309F908F900895A0E2B0E0E1EAF3E00C947A
S11307408B065C01962E7A01F9018E010F5F1F4F13
S1130750680180E2D8011D928A95E9F7D5011396C4
S11307608C9080E090E0612C712C30E061E070E0CE
S113077083FC259183FE21918F01522E211103C008
S113078080E090E092C02E3511F4009751F1432F90
S113079050E0481759073CF42D3559F12D3219F41E
S11307A0772009F103C0772009F46AC0452D4695E6
S11307B046954695D601A40FB11D452D47708B0172
S11307C002C0000F111F4A95E2F7A8015C91452B66
S11307D04C93651459F0561410F45394E7CF5A947B
S11307E0E5CF31E004C07724739401C0712C0196E5
S11307F0BFCF772019F08E8180628E83311103C0C0
S11308008824839417C0F6019E012F5D3F4F808199
S1130810809581932E173F07D1F7F2CFE114F104AD
S113082029F0D7018C93F70131967F019A94812C9A
S11308309920F9F0C5010E94940597FD18C0FC01A8
S1130840FF2723E0F595E7952A95E1F7EC0DFD1DCB
S1130850208130E0AC014770552702C035952795BB
S11308604A95E2F720FDDACFB5010E940E06811009
S113087087CFE114F10411F0D7011C92C80115C00F
S1130880422F469546954695D601A40FB11D422F99
S113089047708B0102C0000F111F4A95E2F7A801AF
S11308A05C91452B4C93622EA2CFA096EFE00C9462
S11308B0A706A0E0B0E0EFE5F4E00C948B066C0131
S11308C0EB015A01FC0117821682512CF601E380D8
S11308D0FE01E3FC8591E3FE8191182FEF0188234B
S11308E009F4EEC090E00E946A05892B21F0C6014C
S11308F00E94F002EBCF153241F4FE01E3FC1591A6
S1130900E3FE1191EF01153281F4C6010E949405B2
S113091097FDD4C0412F50E09C013327241735079D
S1130920A9F2B6010E940E06CBC01A3239F4E3FCD8
S11309301591E3FE1191EF0101E001C000E0F12CFB
S113094020ED210F2A3080F402606F2D70E080E0EA
S113095090E040E20E94C902F62EFE01E3FC1591EC
S1130960E3FE1191EF01ECCF01FF03C0F11003C0CE
S1130970A7C0FF24FA94183619F01C3651F010C0A1
S1130980FE01E3FC1591E3FE1191EF01183641F4E9
S113099008600460FE01E3FC1591E3FE1191EF0190
S11309A0112309F48DC0612F70E088E690E00E9465
S11309B07305892B09F484C000FD07C0F50180800C
S11309C09180C50102965C0102C0812C912C1E36D7
S11309D051F4F6014681578160E070E0202FC40194
S11309E00E94BD0273CF1336A9F401FD02C0FF2497
S11309F0F394C6010E94940597FD60C0811491048C
S1130A0029F0F4018083C40101964C01FA94F11099
S1130A10F0CF50C01B3559F49E01A4016F2DC601BF
S1130A200E949B03EC01892B09F044C03EC0C6011F
S1130A300E94F00297FD42C01F3661F128F414367B
S1130A4039F1193651F128C0133771F0153701F116
S1130A5023C08114910429F0F4016082C401019639
S1130A604C01FA94FF2071F0C6010E9494053C01E8
S1130A7097FD08C00E946A05892B59F3B601C3018A
S1130A800E940E0681149104A9F0F401108212C090
S1130A90006203C0006101C00064202FA4016F2D17
S1130AA0C6010E940903811105C0F6018381807388
S1130AB029F406C000FD0ACF539408CF552019F03D
S1130AC0852D90E002C08FEF9FEFCDB7DEB7EFE04A
S1130AD00C94A70691110C948506803219F0895064
S1130AE08550C8F70895FC010590061621F00020F2
S1130AF0D9F7C00108953197CF010895FC010590FD
S1130B00615070400110D8F7809590958E0F9F1F0B
S1130B100895FC016150704001900110D8F7809550
S1130B2090958E0F9F1F0895CF93DF93EC012B8137
S1130B3020FF33C026FF0AC02F7B2B838E819F8129
S1130B4001969F838E838A8190E029C022FF0FC083
S1130B50E881F9818081082E000C990B009719F423
S1130B6020622B831AC03196F983E8830EC0EA858C
S1130B70FB85099597FF09C02B81019611F080E24E
S1130B8001C080E1822B8B8308C02E813F812F5FBF
S1130B903F4F3F832E83992702C08FEF9FEFDF9152
S1130BA0CF9108950F931F93CF93DF93FB0123817C
S1130BB021FD03C08FEF9FEF2CC022FF16C046819A
S1130BC05781248135814217530744F4A081B181B0
S1130BD09D012F5F3F4F318320838C932681378182
S1130BE02F5F3F4F3783268314C08B01EC01FB0139
S1130BF00084F185E02D0995892BE1F6D80116963C
S1130C008D919C911797019617969C938E931697A6
S1130C10CE01DF91CF911F910F910895FB012381A4
S1130C2020FF12C026FD10C08F3F3FEF930761F0F5
S1130C3082832F7D206423832681378121503109CB
S1130C4037832683992708958FEF9FEF0895FA013C
S1130C50AA27283051F1203181F1E8946F936E7FF7
S1130C606E5F7F4F8F4F9F4FAF4FB1E03ED0B4E0E8
S1130C703CD0670F781F891F9A1FA11D680F791F29
S1130C808A1F911DA11D6A0F711D811D911DA11D3A
S1130C9020D009F468943F912AE0269F112430194A
S1130CA0305D3193DEF6CF010895462F4770405DE5
S1130CB04193B3E00FD0C9F7F6CF462F4F70405D94
S1130CC04A3318F0495D31FD4052419302D0A9F7EF
S1130CD0EACFB4E0A6959795879577956795BA95E9
S1130CE0C9F700976105710508959B01AC010A2EAF
S1130CF006945795479537952795BA95C9F7620F86
S1130D00731F841F951FA01D089599278827089590
S1130D102F923F924F925F926F927F928F929F9207
S1130D20AF92BF92CF92DF92EF92FF920F931F93F5
S1130D30CF93DF93CDB7DEB7CA1BDB0B0FB6F894A6
S1130D40DEBF0FBECDBF09942A88398848885F84E6
S1130D506E847D848C849B84AA84B984C884DF8057
S1130D60EE80FD800C811B81AA81B981CE0FD11D3B
S1130D700FB6F894DEBF0FBECDBFED010895F89411
S1050D80FFCF9F
S1130D8200000001000000000000A00000000000BC
S1130D92000200000000A800000000002074797026
S10B0DA26564203A202563007A
S9030000FC
