:100000000C9434000C9451000C9451000C94510049
:100010000C9451000C9451000C9451000C9451001C
:100020000C9451000C9451000C9451000C9451000C
:100030000C9451000C9451000C9451000C945100FC
:100040000C9453000C9451000C9451000C945100EA
:100050000C9451000C9451000C9451000C945100DC
:100060000C9451000C94510011241FBECFEFD8E026
:10007000DEBFCDBF11E0A0E0B1E0E0E1F2E002C000
:1000800005900D92AA30B107D9F721E0AAE0B1E0BE
:1000900001C01D92A231B207E1F70E94A9000C94A1
:1000A00006010C9400001F920F920FB60F921124BC
:1000B0008F939F938091100190911101019680324E
:1000C000910529F090931101809310013BC010928B
:1000D00011011092100180910E0190910F01893051
:1000E000910571F410920F0110920E0180910C0194
:1000F00090910D01019690930D0180930C0105C024
:10010000019690930F0180930E0180910C019091C4
:100110000D01069769F410920D0110920C01809167
:100120000A0190910B01019690930B0180930A01B3
:1001300080910A0190910B010A9721F410920B0112
:1001400010920A019F918F910F900FBE0F901F90F8
:100150001895CF93DF93CDB7DEB72A970FB6F894F3
:10016000DEBF0FBECDBF8AE0E0E0F1E0DE01119618
:1001700001900D928A95E1F78FEF8AB987E084B9F3
:1001800085B5856085BDEEE6F0E080818160808385
:10019000789433E025E096E035B9E0910E01F091D6
:1001A0000F0141E050E04C0F5D1FE40FF51F80810F
:1001B0008BB9EFE9FFE03197F1F700C0000025B9F6
:1001C000E0910C01F0910D0141E050E04C0F5D1FFA
:1001D000E40FF51F80818BB9EFE9FFE03197F1F76C
:1001E00000C0000095B9E0910A01F0910B0141E0D7
:1001F00050E04C0F5D1FE40FF51F80818BB9EFE9D4
:10020000FFE03197F1F700C00000C6CFF894FFCFB0
:0A021000FC60DAF266B6BEE4FEE61A
:00000001FF
