:100000000C9434000C9446000C9446000C9446006A
:100010000C9446000C9446000C9446000C94460048
:100020000C9446000C9446000C9446000C94460038
:100030000C9446000C9446000C9446000C94460028
:100040000C9446000C9446000C94C2000C9446009C
:100050000C9446000C9446000C9446000C94460008
:100060000C9446000C94460011241FBECFEFD8E03C
:10007000DEBFCDBF21E0A0E0B1E001C01D92A235FE
:10008000B207E1F70E9419010C9473010C9400006F
:100090005B9A85E08A95F1F700005B988FE99FE015
:1000A0000197F1F700C000000895CF93C82F5A9A26
:1000B0008BB19C2F907F8F70892B8BB90E94480049
:1000C0002BB130E1C39FC0011124922F9F70892B67
:1000D0008BB90E944800CF910895CF93C82F5A98AA
:1000E0008BB19C2F907F8F70892B8BB90E94480019
:1000F0002BB130E1C39FC0011124922F9F70892B37
:100100008BB90E944800CF91089581E00E946D0054
:100110008FE99FE00197F1F700C0000008958FE399
:100120009CE90197F1F700C000008AB18C6F8AB991
:1001300082E00E946D0088E20E946D008CE00E94C7
:100140006D000E94850086E00E946D000895E0EC3D
:10015000F0E08081826080831092C5008FEC8093F4
:10016000C400E2ECF0E0808186608083E1ECF0E0A6
:1001700080818061808380818860808380818068C5
:10018000808308951F920F920FB60F9211248F93C0
:10019000AF93BF93CF93DF93EF93FF938091C00012
:1001A000882394F4C6ECD0E0A0ECB0E0E09101012B
:1001B00081E08E0F809301018881F0E0EE5FFE4FB9
:1001C00080838C91882394F3E0910101F0E0EE5F4D
:1001D000FE4F108281E080930001FF91EF91DF914B
:1001E000CF91BF91AF918F910F900FBE0F901F9045
:1001F0001895CF93DF93809101018823B9F09091F6
:100200000201992389F020E0E0ECF0E0C6ECD0E0B8
:10021000808185FFFDCF98832F5FA22FB0E0AE5F76
:10022000BE4F9C919111F4CF10920101DF91CF91BB
:1002300008950E94A7000E948F00789402E011E0C8
:100240002FEF80E792E0215080409040E1F700C01E
:1002500000000E94F90080910001882389F3109228
:1002600000010E94850080E80E946D00F8018081F5
:1002700081112BC025C0F70181917F01882331F0C6
:100280000E945500CF5FC031B1F729C080EC0E94B9
:100290006D00C032A8F6EC2FF0E0EE5FFE4F8081DB
:1002A000811108C0CDCFEC2FF0E0EE5FFE4F8081D2
:1002B000882331F20E945500CF5FC032A0F3C0CF37
:1002C00080EC0E946D00C0E0E6CF0E9455000F2E2A
:1002D000F3E0EF2EF1E0FF2EF02DC1E0CCCF80EC6B
:0A02E0000E946D00D8CFF894FFCF04
:00000001FF
